{
  "address": "0x2a0013FFf210316315430a2124F683679d9029B2",
  "abi": [
    {
      "inputs": [
        {
          "internalType": "address",
          "name": "_eip4337manager",
          "type": "address"
        }
      ],
      "stateMutability": "nonpayable",
      "type": "constructor"
    },
    {
      "inputs": [],
      "name": "eip4337manager",
      "outputs": [
        {
          "internalType": "address",
          "name": "",
          "type": "address"
        }
      ],
      "stateMutability": "view",
      "type": "function"
    },
    {
      "inputs": [
        {
          "internalType": "address",
          "name": "",
          "type": "address"
        },
        {
          "internalType": "uint256",
          "name": "",
          "type": "uint256"
        },
        {
          "internalType": "bytes",
          "name": "",
          "type": "bytes"
        },
        {
          "internalType": "enum Enum.Operation",
          "name": "",
          "type": "uint8"
        }
      ],
      "name": "executeAndRevert",
      "outputs": [],
      "stateMutability": "nonpayable",
      "type": "function"
    },
    {
      "inputs": [],
      "name": "getNonce",
      "outputs": [
        {
          "internalType": "uint256",
          "name": "nonce",
          "type": "uint256"
        }
      ],
      "stateMutability": "nonpayable",
      "type": "function"
    },
    {
      "inputs": [
        {
          "internalType": "bytes32",
          "name": "_hash",
          "type": "bytes32"
        },
        {
          "internalType": "bytes",
          "name": "_signature",
          "type": "bytes"
        }
      ],
      "name": "isValidSignature",
      "outputs": [
        {
          "internalType": "bytes4",
          "name": "",
          "type": "bytes4"
        }
      ],
      "stateMutability": "view",
      "type": "function"
    },
    {
      "inputs": [
        {
          "internalType": "address",
          "name": "",
          "type": "address"
        },
        {
          "internalType": "address",
          "name": "",
          "type": "address"
        },
        {
          "internalType": "uint256[]",
          "name": "",
          "type": "uint256[]"
        },
        {
          "internalType": "uint256[]",
          "name": "",
          "type": "uint256[]"
        },
        {
          "internalType": "bytes",
          "name": "",
          "type": "bytes"
        }
      ],
      "name": "onERC1155BatchReceived",
      "outputs": [
        {
          "internalType": "bytes4",
          "name": "",
          "type": "bytes4"
        }
      ],
      "stateMutability": "pure",
      "type": "function"
    },
    {
      "inputs": [
        {
          "internalType": "address",
          "name": "",
          "type": "address"
        },
        {
          "internalType": "address",
          "name": "",
          "type": "address"
        },
        {
          "internalType": "uint256",
          "name": "",
          "type": "uint256"
        },
        {
          "internalType": "uint256",
          "name": "",
          "type": "uint256"
        },
        {
          "internalType": "bytes",
          "name": "",
          "type": "bytes"
        }
      ],
      "name": "onERC1155Received",
      "outputs": [
        {
          "internalType": "bytes4",
          "name": "",
          "type": "bytes4"
        }
      ],
      "stateMutability": "pure",
      "type": "function"
    },
    {
      "inputs": [
        {
          "internalType": "address",
          "name": "",
          "type": "address"
        },
        {
          "internalType": "address",
          "name": "",
          "type": "address"
        },
        {
          "internalType": "uint256",
          "name": "",
          "type": "uint256"
        },
        {
          "internalType": "bytes",
          "name": "",
          "type": "bytes"
        }
      ],
      "name": "onERC721Received",
      "outputs": [
        {
          "internalType": "bytes4",
          "name": "",
          "type": "bytes4"
        }
      ],
      "stateMutability": "pure",
      "type": "function"
    },
    {
      "inputs": [
        {
          "internalType": "bytes4",
          "name": "interfaceId",
          "type": "bytes4"
        }
      ],
      "name": "supportsInterface",
      "outputs": [
        {
          "internalType": "bool",
          "name": "",
          "type": "bool"
        }
      ],
      "stateMutability": "view",
      "type": "function"
    },
    {
      "inputs": [
        {
          "internalType": "address",
          "name": "",
          "type": "address"
        },
        {
          "internalType": "address",
          "name": "",
          "type": "address"
        },
        {
          "internalType": "address",
          "name": "",
          "type": "address"
        },
        {
          "internalType": "uint256",
          "name": "",
          "type": "uint256"
        },
        {
          "internalType": "bytes",
          "name": "",
          "type": "bytes"
        },
        {
          "internalType": "bytes",
          "name": "",
          "type": "bytes"
        }
      ],
      "name": "tokensReceived",
      "outputs": [],
      "stateMutability": "pure",
      "type": "function"
    },
    {
      "inputs": [
        {
          "components": [
            {
              "internalType": "address",
              "name": "sender",
              "type": "address"
            },
            {
              "internalType": "uint256",
              "name": "nonce",
              "type": "uint256"
            },
            {
              "internalType": "bytes",
              "name": "initCode",
              "type": "bytes"
            },
            {
              "internalType": "bytes",
              "name": "callData",
              "type": "bytes"
            },
            {
              "internalType": "uint256",
              "name": "callGasLimit",
              "type": "uint256"
            },
            {
              "internalType": "uint256",
              "name": "verificationGasLimit",
              "type": "uint256"
            },
            {
              "internalType": "uint256",
              "name": "preVerificationGas",
              "type": "uint256"
            },
            {
              "internalType": "uint256",
              "name": "maxFeePerGas",
              "type": "uint256"
            },
            {
              "internalType": "uint256",
              "name": "maxPriorityFeePerGas",
              "type": "uint256"
            },
            {
              "internalType": "bytes",
              "name": "paymasterAndData",
              "type": "bytes"
            },
            {
              "internalType": "bytes",
              "name": "signature",
              "type": "bytes"
            }
          ],
          "internalType": "struct UserOperation",
          "name": "",
          "type": "tuple"
        },
        {
          "internalType": "bytes32",
          "name": "",
          "type": "bytes32"
        },
        {
          "internalType": "uint256",
          "name": "",
          "type": "uint256"
        }
      ],
      "name": "validateUserOp",
      "outputs": [
        {
          "internalType": "uint256",
          "name": "deadline",
          "type": "uint256"
        }
      ],
      "stateMutability": "nonpayable",
      "type": "function"
    }
  ],
  "transactionHash": "0x7242eeb5a7740df1581a19c739a8026dc1f9cf6abde926ddac46ee2c72e5e78a",
  "args": [
    "0x34D26E0E757931421Ba120B05269DC475901FFc9"
  ],
  "numDeployments": 2,
  "solcInputHash": "46b584b5c622a5a753b2110023342e2b",
  "bytecode": "0x60a060405234801561001057600080fd5b506040516110f03803806110f083398101604081905261002f91610040565b6001600160a01b0316608052610070565b60006020828403121561005257600080fd5b81516001600160a01b038116811461006957600080fd5b9392505050565b60805161105e61009260003960008181610185015261057b015261105e6000f3fe608060405234801561001057600080fd5b50600436106100bd5760003560e01c80633a871cdd11610076578063bc197c811161005b578063bc197c8114610200578063d087d2881461023b578063f23a6e611461024357600080fd5b80633a871cdd146101cc578063940d3c60146101ed57600080fd5b8063150b7a02116100a7578063150b7a02146101045780631626ba7e1461016d5780632bcadc241461018057600080fd5b806223de29146100c257806301ffc9a7146100dc575b600080fd5b6100da6100d0366004610983565b5050505050505050565b005b6100ef6100ea366004610a2e565b61027c565b60405190151581526020015b60405180910390f35b61013c610112366004610a70565b7f150b7a020000000000000000000000000000000000000000000000000000000095945050505050565b6040517fffffffff0000000000000000000000000000000000000000000000000000000090911681526020016100fb565b61013c61017b366004610bf9565b610361565b6101a77f000000000000000000000000000000000000000000000000000000000000000081565b60405173ffffffffffffffffffffffffffffffffffffffff90911681526020016100fb565b6101df6101da366004610c40565b6104b9565b6040519081526020016100fb565b6100da6101fb366004610c94565b6104e3565b61013c61020e366004610d47565b7fbc197c810000000000000000000000000000000000000000000000000000000098975050505050505050565b6101df6104f2565b61013c610251366004610de1565b7ff23a6e61000000000000000000000000000000000000000000000000000000009695505050505050565b60007fffffffff0000000000000000000000000000000000000000000000000000000082167f4e2312e000000000000000000000000000000000000000000000000000000000148061030f57507fffffffff0000000000000000000000000000000000000000000000000000000082167f150b7a0200000000000000000000000000000000000000000000000000000000145b8061035b57507fffffffff0000000000000000000000000000000000000000000000000000000082167f01ffc9a700000000000000000000000000000000000000000000000000000000145b92915050565b6000806103bb846040517f19457468657265756d205369676e6564204d6573736167653a0a3332000000006020820152603c8101829052600090605c01604051602081830303815290604052805190602001209050919050565b905060006103c98285610519565b6040517f2f54bf6e00000000000000000000000000000000000000000000000000000000815273ffffffffffffffffffffffffffffffffffffffff8216600482015290915033908190632f54bf6e90602401602060405180830381865afa158015610438573d6000803e3d6000fd5b505050506040513d601f19601f8201168201806040525081019061045c9190610e69565b1561048d57507f1626ba7e00000000000000000000000000000000000000000000000000000000925061035b915050565b507fffffffff00000000000000000000000000000000000000000000000000000000925061035b915050565b6000806104c461053d565b9050808060200190518101906104da9190610e84565b95945050505050565b6104eb61053d565b5050505050565b6000806104fd61053d565b9050808060200190518101906105139190610e84565b91505090565b60008060006105288585610629565b915091506105358161066e565b509392505050565b6040517f5229073f000000000000000000000000000000000000000000000000000000008152606090339060009081908390635229073f906105ac907f000000000000000000000000000000000000000000000000000000000000000090859081903690600190600401610ecc565b6000604051808303816000875af11580156105cb573d6000803e3d6000fd5b505050506040513d6000823e601f3d9081017fffffffffffffffffffffffffffffffffffffffffffffffffffffffffffffffe01682016040526106119190810190610f7e565b915091508161062257805160208201fd5b9392505050565b600080825160410361065f5760208301516040840151606085015160001a61065387828585610829565b94509450505050610667565b506000905060025b9250929050565b600081600481111561068257610682610e9d565b0361068a5750565b600181600481111561069e5761069e610e9d565b0361070a576040517f08c379a000000000000000000000000000000000000000000000000000000000815260206004820152601860248201527f45434453413a20696e76616c6964207369676e6174757265000000000000000060448201526064015b60405180910390fd5b600281600481111561071e5761071e610e9d565b03610785576040517f08c379a000000000000000000000000000000000000000000000000000000000815260206004820152601f60248201527f45434453413a20696e76616c6964207369676e6174757265206c656e677468006044820152606401610701565b600381600481111561079957610799610e9d565b03610826576040517f08c379a000000000000000000000000000000000000000000000000000000000815260206004820152602260248201527f45434453413a20696e76616c6964207369676e6174757265202773272076616c60448201527f75650000000000000000000000000000000000000000000000000000000000006064820152608401610701565b50565b6000807f7fffffffffffffffffffffffffffffff5d576e7357a4501ddfe92f46681b20a0831115610860575060009050600361090f565b6040805160008082526020820180845289905260ff881692820192909252606081018690526080810185905260019060a0016020604051602081039080840390855afa1580156108b4573d6000803e3d6000fd5b50506040517fffffffffffffffffffffffffffffffffffffffffffffffffffffffffffffffe0015191505073ffffffffffffffffffffffffffffffffffffffff81166109085760006001925092505061090f565b9150600090505b94509492505050565b803573ffffffffffffffffffffffffffffffffffffffff8116811461093c57600080fd5b919050565b60008083601f84011261095357600080fd5b50813567ffffffffffffffff81111561096b57600080fd5b60208301915083602082850101111561066757600080fd5b60008060008060008060008060c0898b03121561099f57600080fd5b6109a889610918565b97506109b660208a01610918565b96506109c460408a01610918565b955060608901359450608089013567ffffffffffffffff808211156109e857600080fd5b6109f48c838d01610941565b909650945060a08b0135915080821115610a0d57600080fd5b50610a1a8b828c01610941565b999c989b5096995094979396929594505050565b600060208284031215610a4057600080fd5b81357fffffffff000000000000000000000000000000000000000000000000000000008116811461062257600080fd5b600080600080600060808688031215610a8857600080fd5b610a9186610918565b9450610a9f60208701610918565b935060408601359250606086013567ffffffffffffffff811115610ac257600080fd5b610ace88828901610941565b969995985093965092949392505050565b7f4e487b7100000000000000000000000000000000000000000000000000000000600052604160045260246000fd5b604051601f82017fffffffffffffffffffffffffffffffffffffffffffffffffffffffffffffffe016810167ffffffffffffffff81118282101715610b5557610b55610adf565b604052919050565b600067ffffffffffffffff821115610b7757610b77610adf565b50601f017fffffffffffffffffffffffffffffffffffffffffffffffffffffffffffffffe01660200190565b600082601f830112610bb457600080fd5b8135610bc7610bc282610b5d565b610b0e565b818152846020838601011115610bdc57600080fd5b816020850160208301376000918101602001919091529392505050565b60008060408385031215610c0c57600080fd5b82359150602083013567ffffffffffffffff811115610c2a57600080fd5b610c3685828601610ba3565b9150509250929050565b600080600060608486031215610c5557600080fd5b833567ffffffffffffffff811115610c6c57600080fd5b84016101608187031215610c7f57600080fd5b95602085013595506040909401359392505050565b60008060008060808587031215610caa57600080fd5b610cb385610918565b935060208501359250604085013567ffffffffffffffff811115610cd657600080fd5b610ce287828801610ba3565b925050606085013560028110610cf757600080fd5b939692955090935050565b60008083601f840112610d1457600080fd5b50813567ffffffffffffffff811115610d2c57600080fd5b6020830191508360208260051b850101111561066757600080fd5b60008060008060008060008060a0898b031215610d6357600080fd5b610d6c89610918565b9750610d7a60208a01610918565b9650604089013567ffffffffffffffff80821115610d9757600080fd5b610da38c838d01610d02565b909850965060608b0135915080821115610dbc57600080fd5b610dc88c838d01610d02565b909650945060808b0135915080821115610a0d57600080fd5b60008060008060008060a08789031215610dfa57600080fd5b610e0387610918565b9550610e1160208801610918565b94506040870135935060608701359250608087013567ffffffffffffffff811115610e3b57600080fd5b610e4789828a01610941565b979a9699509497509295939492505050565b8051801515811461093c57600080fd5b600060208284031215610e7b57600080fd5b61062282610e59565b600060208284031215610e9657600080fd5b5051919050565b7f4e487b7100000000000000000000000000000000000000000000000000000000600052602160045260246000fd5b73ffffffffffffffffffffffffffffffffffffffff8616815284602082015260806040820152826080820152828460a0830137600060a08483010152600060a07fffffffffffffffffffffffffffffffffffffffffffffffffffffffffffffffe0601f860116830101905060028310610f6e577f4e487b7100000000000000000000000000000000000000000000000000000000600052602160045260246000fd5b8260608301529695505050505050565b60008060408385031215610f9157600080fd5b610f9a83610e59565b915060208084015167ffffffffffffffff811115610fb757600080fd5b8401601f81018613610fc857600080fd5b8051610fd6610bc282610b5d565b8181528784838501011115610fea57600080fd5b60005b82811015611008578381018501518282018601528401610fed565b828111156110195760008584840101525b5080945050505050925092905056fea2646970667358221220adf34a8e387e3a3a5d044079338715697bb27e681b3ac2b3172b251c2d81f07464736f6c634300080f0033",
  "devdoc": {
    "kind": "dev",
    "methods": {
      "supportsInterface(bytes4)": {
        "params": {
          "interfaceId": "Id of the interface."
        },
        "returns": {
          "_0": "if the interface is supported."
        }
      }
    },
    "version": 1
  },
  "userdoc": {
    "kind": "user",
    "methods": {
      "executeAndRevert(address,uint256,bytes,uint8)": {
        "notice": "called from the Safe. delegate actual work to EIP4337Manager"
      },
      "getNonce()": {
        "notice": "Helper for wallet to get the next nonce."
      },
      "onERC1155BatchReceived(address,address,uint256[],uint256[],bytes)": {
        "notice": "Handles ERC1155 Token batch callback. return Standardized onERC1155BatchReceived return value."
      },
      "onERC1155Received(address,address,uint256,uint256,bytes)": {
        "notice": "Handles ERC1155 Token callback. return Standardized onERC1155Received return value."
      },
      "onERC721Received(address,address,uint256,bytes)": {
        "notice": "Handles ERC721 Token callback.  return Standardized onERC721Received return value."
      },
      "supportsInterface(bytes4)": {
        "notice": "Implements ERC165 interface support for ERC1155TokenReceiver, ERC721TokenReceiver and IERC165."
      },
      "tokensReceived(address,address,address,uint256,bytes,bytes)": {
        "notice": "Handles ERC777 Token callback. return nothing (not standardized)"
      },
      "validateUserOp((address,uint256,bytes,bytes,uint256,uint256,uint256,uint256,uint256,bytes,bytes),bytes32,uint256)": {
        "notice": "called from the Safe. delegate actual work to EIP4337Manager"
      }
    },
    "notice": "The Safe enables adding custom functions implementation to the Safe by setting a 'fallbackHandler'. This 'fallbackHandler' adds an implementation of 'validateUserOp' to the Safe. Note that the implementation of the 'validateUserOp' method is located in the EIP4337Manager. Upon receiving the 'validateUserOp', a Safe with EIP4337Fallback enabled makes a 'delegatecall' to EIP4337Manager.",
    "version": 1
  },
  "storageLayout": {
    "storage": [],
    "types": null
  }
}